:0808ED0002080000020A0000ED
:10088C00E4F5807580F2E4F508F509E4F50AF50B5A
:10089C00050BE50B7002050AB4E9F5E50AB403F0A3
:1008AC000509E50970020508B4FBE0E508B404DBB2
:1008BC00E4F580F508F509C3E50994FBE508940413
:1008CC0050C1E4F50AF50B050BE50B7002050AB4F3
:1008DC00E9F5E50AB403F00509E50970DA050880C5
:0108EC00D635
:03000000020800F3
:0C080000787FE4F6D8FD75810B020847F4
:10080C0002088CE493A3F8E493A34003F68001F26E
:10081C0008DFF48029E493A3F85407240CC8C333ED
:10082C00C4540F4420C8834004F456800146F6DFBC
:10083C00E4800B01020408102040809008EDE47E57
:10084C00019360BCA3FF543F30E509541FFEE493B1
:10085C00A360010ECF54C025E060A840B8E493A378
:10086C00FAE493A3F8E493A3C8C582C8CAC583CAA3
:10087C00F0A3C8C582C8CAC583CADFE9DEE780BE5B
:0108F5000002
:00000001FF
