:0809180002080000020A0000C1
:10080000E4F59075A0FF20A06020A05DD290E4F5F3
:1008100008F509E4F50AF50B050BE50B7002050A6E
:10082000B4F4F5E50AB401F00509E509700205081C
:10083000B4FBE0E508B404DBC290E4F508F509C3B5
:10084000E50994FBE508940450BFE4F50AF50B05AF
:100850000BE50B7002050AB4F4F5E50AB401F005E6
:1008600009E50970DA050880D620A105D29130A1EA
:10087000FD20A205D29230A2FD20A305D29330A381
:0C088000FDC293C292C291C29002080611
:0300000002088C67
:0C088C00787FE4F6D8FD75810B0208D3DC
:10089800020800E493A3F8E493A34003F68001F26E
:1008A80008DFF48029E493A3F85407240CC8C33361
:1008B800C4540F4420C8834004F456800146F6DF30
:1008C800E4800B0102040810204080900918E47E9F
:1008D800019360BCA3FF543F30E509541FFEE49325
:1008E800A360010ECF54C025E060A840B8E493A3EC
:1008F800FAE493A3F8E493A3C8C582C8CAC583CA17
:10090800F0A3C8C582C8CAC583CADFE9DEE780BECE
:0109200000D6
:00000001FF
