:0808E80002080000020A0000F2
:10088C00E4F580D280E4F508F509E4F50AF50B05EA
:10089C000BE50B7002050A64FA450A70F20509E5CE
:1008AC000970020508B4FCE2E508B404DDC280E47A
:1008BC00F508F509D3E50994FBE508940450C4E464
:1008CC00F50AF50B050BE50B7002050A64FA450AEF
:0C08DC0070F20509E50970DC050880D801
:03000000020800F3
:0C080000787FE4F6D8FD75810B020847F4
:10080C0002088CE493A3F8E493A34003F68001F26E
:10081C0008DFF48029E493A3F85407240CC8C333ED
:10082C00C4540F4420C8834004F456800146F6DFBC
:10083C00E4800B01020408102040809008E8E47E5C
:10084C00019360BCA3FF543F30E509541FFEE493B1
:10085C00A360010ECF54C025E060A840B8E493A378
:10086C00FAE493A3F8E493A3C8C582C8CAC583CAA3
:10087C00F0A3C8C582C8CAC583CADFE9DEE780BE5B
:0108F0000007
:00000001FF
